{
  "contractName": "Arbitrage",
  "abi": [
    {
      "inputs": [],
      "stateMutability": "nonpayable",
      "type": "constructor"
    },
    {
      "inputs": [],
      "name": "admin",
      "outputs": [
        {
          "internalType": "address",
          "name": "",
          "type": "address"
        }
      ],
      "stateMutability": "view",
      "type": "function",
      "constant": true
    },
    {
      "inputs": [
        {
          "internalType": "string",
          "name": "",
          "type": "string"
        }
      ],
      "name": "assets",
      "outputs": [
        {
          "internalType": "string",
          "name": "name",
          "type": "string"
        },
        {
          "internalType": "address",
          "name": "dex",
          "type": "address"
        }
      ],
      "stateMutability": "view",
      "type": "function",
      "constant": true
    },
    {
      "inputs": [],
      "name": "oracle",
      "outputs": [
        {
          "internalType": "address",
          "name": "",
          "type": "address"
        }
      ],
      "stateMutability": "view",
      "type": "function",
      "constant": true
    },
    {
      "inputs": [
        {
          "internalType": "address",
          "name": "_oracle",
          "type": "address"
        }
      ],
      "name": "configureOracle",
      "outputs": [],
      "stateMutability": "nonpayable",
      "type": "function"
    },
    {
      "inputs": [
        {
          "components": [
            {
              "internalType": "string",
              "name": "name",
              "type": "string"
            },
            {
              "internalType": "address",
              "name": "dex",
              "type": "address"
            }
          ],
          "internalType": "struct Arbitrage.Asset[]",
          "name": "_assets",
          "type": "tuple[]"
        }
      ],
      "name": "configureAssets",
      "outputs": [],
      "stateMutability": "nonpayable",
      "type": "function"
    },
    {
      "inputs": [
        {
          "internalType": "string",
          "name": "_sticker",
          "type": "string"
        },
        {
          "internalType": "uint256",
          "name": "_date",
          "type": "uint256"
        }
      ],
      "name": "maybeTrade",
      "outputs": [],
      "stateMutability": "nonpayable",
      "type": "function"
    }
  ],
  "bytecode": "0x608060405234801561001057600080fd5b5033600160006101000a81548173ffffffffffffffffffffffffffffffffffffffff021916908373ffffffffffffffffffffffffffffffffffffffff160217905550611760806100616000396000f3fe608060405234801561001057600080fd5b50600436106100625760003560e01c80631fa945bb14610067578063301617211461008357806347ce8d301461009f5780637dc0d1d0146100bb57806385936228146100d9578063f851a4401461010a575b600080fd5b610081600480360381019061007c9190610b36565b610128565b005b61009d60048036038101906100989190610bc8565b6101fc565b005b6100b960048036038101906100b49190610ca1565b610442565b005b6100c36108f3565b6040516100d09190610d10565b60405180910390f35b6100f360048036038101906100ee9190610e6c565b610919565b604051610101929190610f3d565b60405180910390f35b6101126109fb565b60405161011f9190610d10565b60405180910390f35b3373ffffffffffffffffffffffffffffffffffffffff16600160009054906101000a900473ffffffffffffffffffffffffffffffffffffffff1673ffffffffffffffffffffffffffffffffffffffff16146101b8576040517f08c379a00000000000000000000000000000000000000000000000000000000081526004016101af90610fb9565b60405180910390fd5b80600260006101000a81548173ffffffffffffffffffffffffffffffffffffffff021916908373ffffffffffffffffffffffffffffffffffffffff16021790555050565b3373ffffffffffffffffffffffffffffffffffffffff16600160009054906101000a900473ffffffffffffffffffffffffffffffffffffffff1673ffffffffffffffffffffffffffffffffffffffff161461028c576040517f08c379a000000000000000000000000000000000000000000000000000000000815260040161028390610fb9565b60405180910390fd5b60005b8282905081101561043d5760405180604001604052808484848181106102b8576102b7610fd9565b5b90506020028101906102ca9190611017565b80600001906102d9919061103f565b8080601f016020809104026020016040519081016040528093929190818152602001838380828437600081840152601f19601f82011690508083019250505050505050815260200184848481811061033457610333610fd9565b5b90506020028101906103469190611017565b60200160208101906103589190610b36565b73ffffffffffffffffffffffffffffffffffffffff16815250600084848481811061038657610385610fd9565b5b90506020028101906103989190611017565b80600001906103a7919061103f565b6040516103b59291906110d2565b908152602001604051809103902060008201518160000190805190602001906103df929190610a21565b5060208201518160010160006101000a81548173ffffffffffffffffffffffffffffffffffffffff021916908373ffffffffffffffffffffffffffffffffffffffff16021790555090505080806104359061111a565b91505061028f565b505050565b3373ffffffffffffffffffffffffffffffffffffffff16600160009054906101000a900473ffffffffffffffffffffffffffffffffffffffff1673ffffffffffffffffffffffffffffffffffffffff16146104d2576040517f08c379a00000000000000000000000000000000000000000000000000000000081526004016104c990610fb9565b60405180910390fd5b60008084846040516104e59291906110d2565b90815260200160405180910390209050600073ffffffffffffffffffffffffffffffffffffffff168160010160009054906101000a900473ffffffffffffffffffffffffffffffffffffffff1673ffffffffffffffffffffffffffffffffffffffff1603610588576040517f08c379a000000000000000000000000000000000000000000000000000000000815260040161057f906111ae565b60405180910390fd5b600084848460405160200161059f939291906111ef565b6040516020818303038152906040528051906020012090506000600260009054906101000a900473ffffffffffffffffffffffffffffffffffffffff16905060008173ffffffffffffffffffffffffffffffffffffffff166354f6127f846040518263ffffffff1660e01b81526004016106199190611232565b600060405180830381865afa158015610636573d6000803e3d6000fd5b505050506040513d6000823e3d601f19601f8201168201806040525081019061065f91906113fc565b90506001151581600001511515146106ac576040517f08c379a00000000000000000000000000000000000000000000000000000000081526004016106a390611491565b60405180910390fd5b600a81604001515110156106f5576040517f08c379a00000000000000000000000000000000000000000000000000000000081526004016106ec90611523565b60405180910390fd5b60008460010160009054906101000a900473ffffffffffffffffffffffffffffffffffffffff16905060008173ffffffffffffffffffffffffffffffffffffffff1663524f38898a8a6040518363ffffffff1660e01b815260040161075b929190611570565b602060405180830381865afa158015610778573d6000803e3d6000fd5b505050506040513d601f19601f8201168201806040525081019061079c9190611594565b9050600081670de0b6b3a76400006107b491906115f0565b90508360200151821115610850578273ffffffffffffffffffffffffffffffffffffffff166304804ee88b8b8460648760636107f09190611621565b6107fa91906115f0565b6040518563ffffffff1660e01b8152600401610819949392919061168a565b600060405180830381600087803b15801561083357600080fd5b505af1158015610847573d6000803e3d6000fd5b505050506108e7565b83602001518210156108e6578273ffffffffffffffffffffffffffffffffffffffff16639b0a5e678b8b84606487606561088a9190611621565b61089491906115f0565b6040518563ffffffff1660e01b81526004016108b3949392919061168a565b600060405180830381600087803b1580156108cd57600080fd5b505af11580156108e1573d6000803e3d6000fd5b505050505b5b50505050505050505050565b600260009054906101000a900473ffffffffffffffffffffffffffffffffffffffff1681565b600081805160208101820180518482526020830160208501208183528095505050505050600091509050806000018054610952906116f9565b80601f016020809104026020016040519081016040528092919081815260200182805461097e906116f9565b80156109cb5780601f106109a0576101008083540402835291602001916109cb565b820191906000526020600020905b8154815290600101906020018083116109ae57829003601f168201915b5050505050908060010160009054906101000a900473ffffffffffffffffffffffffffffffffffffffff16905082565b600160009054906101000a900473ffffffffffffffffffffffffffffffffffffffff1681565b828054610a2d906116f9565b90600052602060002090601f016020900481019282610a4f5760008555610a96565b82601f10610a6857805160ff1916838001178555610a96565b82800160010185558215610a96579182015b82811115610a95578251825591602001919060010190610a7a565b5b509050610aa39190610aa7565b5090565b5b80821115610ac0576000816000905550600101610aa8565b5090565b6000604051905090565b600080fd5b600080fd5b600073ffffffffffffffffffffffffffffffffffffffff82169050919050565b6000610b0382610ad8565b9050919050565b610b1381610af8565b8114610b1e57600080fd5b50565b600081359050610b3081610b0a565b92915050565b600060208284031215610b4c57610b4b610ace565b5b6000610b5a84828501610b21565b91505092915050565b600080fd5b600080fd5b600080fd5b60008083601f840112610b8857610b87610b63565b5b8235905067ffffffffffffffff811115610ba557610ba4610b68565b5b602083019150836020820283011115610bc157610bc0610b6d565b5b9250929050565b60008060208385031215610bdf57610bde610ace565b5b600083013567ffffffffffffffff811115610bfd57610bfc610ad3565b5b610c0985828601610b72565b92509250509250929050565b60008083601f840112610c2b57610c2a610b63565b5b8235905067ffffffffffffffff811115610c4857610c47610b68565b5b602083019150836001820283011115610c6457610c63610b6d565b5b9250929050565b6000819050919050565b610c7e81610c6b565b8114610c8957600080fd5b50565b600081359050610c9b81610c75565b92915050565b600080600060408486031215610cba57610cb9610ace565b5b600084013567ffffffffffffffff811115610cd857610cd7610ad3565b5b610ce486828701610c15565b93509350506020610cf786828701610c8c565b9150509250925092565b610d0a81610af8565b82525050565b6000602082019050610d256000830184610d01565b92915050565b600080fd5b6000601f19601f8301169050919050565b7f4e487b7100000000000000000000000000000000000000000000000000000000600052604160045260246000fd5b610d7982610d30565b810181811067ffffffffffffffff82111715610d9857610d97610d41565b5b80604052505050565b6000610dab610ac4565b9050610db78282610d70565b919050565b600067ffffffffffffffff821115610dd757610dd6610d41565b5b610de082610d30565b9050602081019050919050565b82818337600083830152505050565b6000610e0f610e0a84610dbc565b610da1565b905082815260208101848484011115610e2b57610e2a610d2b565b5b610e36848285610ded565b509392505050565b600082601f830112610e5357610e52610b63565b5b8135610e63848260208601610dfc565b91505092915050565b600060208284031215610e8257610e81610ace565b5b600082013567ffffffffffffffff811115610ea057610e9f610ad3565b5b610eac84828501610e3e565b91505092915050565b600081519050919050565b600082825260208201905092915050565b60005b83811015610eef578082015181840152602081019050610ed4565b83811115610efe576000848401525b50505050565b6000610f0f82610eb5565b610f198185610ec0565b9350610f29818560208601610ed1565b610f3281610d30565b840191505092915050565b60006040820190508181036000830152610f578185610f04565b9050610f666020830184610d01565b9392505050565b7f6f6e6c792061646d696e00000000000000000000000000000000000000000000600082015250565b6000610fa3600a83610ec0565b9150610fae82610f6d565b602082019050919050565b60006020820190508181036000830152610fd281610f96565b9050919050565b7f4e487b7100000000000000000000000000000000000000000000000000000000600052603260045260246000fd5b600080fd5b600080fd5b600080fd5b60008235600160400383360303811261103357611032611008565b5b80830191505092915050565b6000808335600160200384360303811261105c5761105b611008565b5b80840192508235915067ffffffffffffffff82111561107e5761107d61100d565b5b60208301925060018202360383131561109a57611099611012565b5b509250929050565b600081905092915050565b60006110b983856110a2565b93506110c6838584610ded565b82840190509392505050565b60006110df8284866110ad565b91508190509392505050565b7f4e487b7100000000000000000000000000000000000000000000000000000000600052601160045260246000fd5b600061112582610c6b565b91507fffffffffffffffffffffffffffffffffffffffffffffffffffffffffffffffff8203611157576111566110eb565b5b600182019050919050565b7f74686520617373657420646f6573206e6f742065786973740000000000000000600082015250565b6000611198601883610ec0565b91506111a382611162565b602082019050919050565b600060208201905081810360008301526111c78161118b565b9050919050565b6000819050919050565b6111e96111e482610c6b565b6111ce565b82525050565b60006111fc8285876110ad565b915061120882846111d8565b602082019150819050949350505050565b6000819050919050565b61122c81611219565b82525050565b60006020820190506112476000830184611223565b92915050565b600080fd5b600080fd5b60008115159050919050565b61126c81611257565b811461127757600080fd5b50565b60008151905061128981611263565b92915050565b60008151905061129e81610c75565b92915050565b600067ffffffffffffffff8211156112bf576112be610d41565b5b602082029050602081019050919050565b6000815190506112df81610b0a565b92915050565b60006112f86112f3846112a4565b610da1565b9050808382526020820190506020840283018581111561131b5761131a610b6d565b5b835b81811015611344578061133088826112d0565b84526020840193505060208101905061131d565b5050509392505050565b600082601f83011261136357611362610b63565b5b81516113738482602086016112e5565b91505092915050565b6000606082840312156113925761139161124d565b5b61139c6060610da1565b905060006113ac8482850161127a565b60008301525060206113c08482850161128f565b602083015250604082015167ffffffffffffffff8111156113e4576113e3611252565b5b6113f08482850161134e565b60408301525092915050565b60006020828403121561141257611411610ace565b5b600082015167ffffffffffffffff8111156114305761142f610ad3565b5b61143c8482850161137c565b91505092915050565b7f7468697320726573756c7420646f6573206e6f74206578697374000000000000600082015250565b600061147b601a83610ec0565b915061148682611445565b602082019050919050565b600060208201905081810360008301526114aa8161146e565b9050919050565b7f746865206e756d626572206f662076616c696461746f727320617265206e6f7460008201527f20656e6f75676800000000000000000000000000000000000000000000000000602082015250565b600061150d602783610ec0565b9150611518826114b1565b604082019050919050565b6000602082019050818103600083015261153c81611500565b9050919050565b600061154f8385610ec0565b935061155c838584610ded565b61156583610d30565b840190509392505050565b6000602082019050818103600083015261158b818486611543565b90509392505050565b6000602082840312156115aa576115a9610ace565b5b60006115b88482850161128f565b91505092915050565b7f4e487b7100000000000000000000000000000000000000000000000000000000600052601260045260246000fd5b60006115fb82610c6b565b915061160683610c6b565b925082611616576116156115c1565b5b828204905092915050565b600061162c82610c6b565b915061163783610c6b565b9250817fffffffffffffffffffffffffffffffffffffffffffffffffffffffffffffffff04831182151516156116705761166f6110eb565b5b828202905092915050565b61168481610c6b565b82525050565b600060608201905081810360008301526116a5818688611543565b90506116b4602083018561167b565b6116c1604083018461167b565b95945050505050565b7f4e487b7100000000000000000000000000000000000000000000000000000000600052602260045260246000fd5b6000600282049050600182168061171157607f821691505b602082108103611724576117236116ca565b5b5091905056fea26469706673582212206d126d22ed7d52f7e5c8e9a89e6108a04cea3cc114a5b95f30fd4479fa96b24d64736f6c634300080d0033",
  "immutableReferences": {},
  "source": "// SPDX-License-Identifier: MIT\npragma solidity ^0.8.13;\n\nimport \"../contracts/Dex.sol\";\nimport \"../contracts/Oracle.sol\";\n\ncontract Arbitrage {\n    struct Asset {\n        string name;\n        address dex;\n    }\n    mapping(string => Asset) public assets;\n    address public admin;\n    address public oracle;\n\n    constructor() {\n        admin = msg.sender;\n    }\n\n    function configureOracle(address _oracle) external onlyAdmin {\n        oracle = _oracle;\n    }\n\n    function configureAssets(Asset[] calldata _assets) external onlyAdmin {\n        for (uint i = 0; i < _assets.length; i++) {\n            assets[_assets[i].name] = Asset(_assets[i].name, _assets[i].dex);\n        }\n    }\n\n    function maybeTrade(\n        string calldata _sticker,\n        uint _date\n    ) external onlyAdmin {\n        Asset storage asset = assets[_sticker];\n        require(asset.dex != address(0), \"the asset does not exist\");\n\n        bytes32 dataKey = keccak256(abi.encodePacked(_sticker, _date));\n        Oracle oracleContract = Oracle(oracle);\n        Oracle.Result memory result = oracleContract.getData(dataKey);\n\n        require(result.exist == true, \"this result does not exist\");\n        require(\n            result.approvedBy.length >= 10,\n            \"the number of validators are not enough\"\n        );\n\n        Dex dexContract = Dex(asset.dex);\n        uint price = dexContract.getPrice(_sticker);\n        uint amount = 1 ether / price;\n\n        if (price > result.payload) {\n            dexContract.sell(_sticker, amount, (99 * price) / 100);\n        } else if (price < result.payload) {\n            dexContract.buy(_sticker, amount, (101 * price) / 100);\n        }\n    }\n\n    modifier onlyAdmin() {\n        require(admin == msg.sender, \"only admin\");\n        _;\n    }\n}\n",
  "sourcePath": "E:\\Coding\\Web3\\Web3 master\\Arbitrage\\contracts\\Arbitrage.sol",
  "compiler": {
    "name": "solc",
    "version": "0.8.13+commit.abaa5c0e.Emscripten.clang"
  },
  "schemaVersion": "3.4.16",
  "updatedAt": "2025-01-26T13:00:30.733Z",
  "networkType": "ethereum",
  "devdoc": {
    "kind": "dev",
    "methods": {},
    "version": 1
  },
  "userdoc": {
    "kind": "user",
    "methods": {},
    "version": 1
  }
}