{
  "contractName": "Dex",
  "abi": [
    {
      "inputs": [
        {
          "internalType": "string",
          "name": "_sticker",
          "type": "string"
        }
      ],
      "name": "getPrice",
      "outputs": [
        {
          "internalType": "uint256",
          "name": "",
          "type": "uint256"
        }
      ],
      "stateMutability": "view",
      "type": "function"
    },
    {
      "inputs": [
        {
          "internalType": "string",
          "name": "_sticker",
          "type": "string"
        },
        {
          "internalType": "uint256",
          "name": "_amount",
          "type": "uint256"
        },
        {
          "internalType": "uint256",
          "name": "_prices",
          "type": "uint256"
        }
      ],
      "name": "sell",
      "outputs": [],
      "stateMutability": "nonpayable",
      "type": "function"
    },
    {
      "inputs": [
        {
          "internalType": "string",
          "name": "_sticker",
          "type": "string"
        },
        {
          "internalType": "uint256",
          "name": "_amount",
          "type": "uint256"
        },
        {
          "internalType": "uint256",
          "name": "_prices",
          "type": "uint256"
        }
      ],
      "name": "buy",
      "outputs": [],
      "stateMutability": "nonpayable",
      "type": "function"
    }
  ],
  "bytecode": "0x608060405234801561001057600080fd5b50610302806100206000396000f3fe608060405234801561001057600080fd5b50600436106100415760003560e01c806304804ee814610046578063524f3889146100625780639b0a5e6714610092575b600080fd5b610060600480360381019061005b9190610189565b6100ae565b005b61007c600480360381019061007791906101fd565b6100b4565b6040516100899190610259565b60405180910390f35b6100ac60048036038101906100a79190610189565b6100de565b005b50505050565b60008083836040516100c79291906102b3565b908152602001604051809103902054905092915050565b50505050565b600080fd5b600080fd5b600080fd5b600080fd5b600080fd5b60008083601f840112610113576101126100ee565b5b8235905067ffffffffffffffff8111156101305761012f6100f3565b5b60208301915083600182028301111561014c5761014b6100f8565b5b9250929050565b6000819050919050565b61016681610153565b811461017157600080fd5b50565b6000813590506101838161015d565b92915050565b600080600080606085870312156101a3576101a26100e4565b5b600085013567ffffffffffffffff8111156101c1576101c06100e9565b5b6101cd878288016100fd565b945094505060206101e087828801610174565b92505060406101f187828801610174565b91505092959194509250565b60008060208385031215610214576102136100e4565b5b600083013567ffffffffffffffff811115610232576102316100e9565b5b61023e858286016100fd565b92509250509250929050565b61025381610153565b82525050565b600060208201905061026e600083018461024a565b92915050565b600081905092915050565b82818337600083830152505050565b600061029a8385610274565b93506102a783858461027f565b82840190509392505050565b60006102c082848661028e565b9150819050939250505056fea26469706673582212208785fb4c0560e2080ea5853ae57a2e91d561ecdf711557982ac5db33d2e6665864736f6c634300080d0033",
  "immutableReferences": {},
  "source": "// SPDX-License-Identifier: MIT\r\n// Tells the Solidity compiler to compile only from v0.8.13 to v0.9.0\r\npragma solidity ^0.8.13;\r\n\r\ncontract Dex {\r\n    mapping(string => uint) private prices;\r\n\r\n    function getPrice(string calldata _sticker) external view returns (uint) {\r\n        return prices[_sticker];\r\n    }\r\n\r\n    function sell(\r\n        string calldata _sticker,\r\n        uint _amount,\r\n        uint _prices\r\n    ) external {\r\n        //Buy ERC20\r\n    }\r\n\r\n    function buy(\r\n        string calldata _sticker,\r\n        uint _amount,\r\n        uint _prices\r\n    ) external {\r\n        //Sell ERC20\r\n    }\r\n}\r\n",
  "sourcePath": "E:\\Coding\\Web3\\Web3 master\\Arbitrage\\contracts\\Dex.sol",
  "compiler": {
    "name": "solc",
    "version": "0.8.13+commit.abaa5c0e.Emscripten.clang"
  },
  "schemaVersion": "3.4.16",
  "updatedAt": "2025-01-26T13:00:29.277Z",
  "devdoc": {
    "kind": "dev",
    "methods": {},
    "version": 1
  },
  "userdoc": {
    "kind": "user",
    "methods": {},
    "version": 1
  }
}