{
  "contractName": "Oracle",
  "abi": [
    {
      "inputs": [
        {
          "internalType": "address[]",
          "name": "_validators",
          "type": "address[]"
        }
      ],
      "stateMutability": "nonpayable",
      "type": "constructor"
    },
    {
      "inputs": [
        {
          "internalType": "bytes32",
          "name": "",
          "type": "bytes32"
        }
      ],
      "name": "results",
      "outputs": [
        {
          "internalType": "bool",
          "name": "exist",
          "type": "bool"
        },
        {
          "internalType": "uint256",
          "name": "payload",
          "type": "uint256"
        }
      ],
      "stateMutability": "view",
      "type": "function"
    },
    {
      "inputs": [
        {
          "internalType": "uint256",
          "name": "",
          "type": "uint256"
        }
      ],
      "name": "validators",
      "outputs": [
        {
          "internalType": "address",
          "name": "",
          "type": "address"
        }
      ],
      "stateMutability": "view",
      "type": "function"
    },
    {
      "inputs": [
        {
          "internalType": "bytes32",
          "name": "dataKey",
          "type": "bytes32"
        },
        {
          "internalType": "uint256",
          "name": "payload",
          "type": "uint256"
        }
      ],
      "name": "feedData",
      "outputs": [],
      "stateMutability": "nonpayable",
      "type": "function"
    },
    {
      "inputs": [
        {
          "internalType": "bytes32",
          "name": "_dataKey",
          "type": "bytes32"
        }
      ],
      "name": "approvedData",
      "outputs": [],
      "stateMutability": "nonpayable",
      "type": "function"
    },
    {
      "inputs": [
        {
          "internalType": "bytes32",
          "name": "_dataKey",
          "type": "bytes32"
        }
      ],
      "name": "getData",
      "outputs": [
        {
          "components": [
            {
              "internalType": "bool",
              "name": "exist",
              "type": "bool"
            },
            {
              "internalType": "uint256",
              "name": "payload",
              "type": "uint256"
            },
            {
              "internalType": "address[]",
              "name": "approvedBy",
              "type": "address[]"
            }
          ],
          "internalType": "struct Oracle.Result",
          "name": "",
          "type": "tuple"
        }
      ],
      "stateMutability": "view",
      "type": "function"
    }
  ],
  "bytecode": "0x60806040523480156200001157600080fd5b50604051620011ce380380620011ce8339818101604052810190620000379190620002f3565b80600190805190602001906200004f92919062000057565b505062000344565b828054828255906000526020600020908101928215620000d3579160200282015b82811115620000d25782518260006101000a81548173ffffffffffffffffffffffffffffffffffffffff021916908373ffffffffffffffffffffffffffffffffffffffff1602179055509160200191906001019062000078565b5b509050620000e29190620000e6565b5090565b5b8082111562000101576000816000905550600101620000e7565b5090565b6000604051905090565b600080fd5b600080fd5b600080fd5b6000601f19601f8301169050919050565b7f4e487b7100000000000000000000000000000000000000000000000000000000600052604160045260246000fd5b62000169826200011e565b810181811067ffffffffffffffff821117156200018b576200018a6200012f565b5b80604052505050565b6000620001a062000105565b9050620001ae82826200015e565b919050565b600067ffffffffffffffff821115620001d157620001d06200012f565b5b602082029050602081019050919050565b600080fd5b600073ffffffffffffffffffffffffffffffffffffffff82169050919050565b60006200021482620001e7565b9050919050565b620002268162000207565b81146200023257600080fd5b50565b60008151905062000246816200021b565b92915050565b6000620002636200025d84620001b3565b62000194565b90508083825260208201905060208402830185811115620002895762000288620001e2565b5b835b81811015620002b65780620002a1888262000235565b8452602084019350506020810190506200028b565b5050509392505050565b600082601f830112620002d857620002d762000119565b5b8151620002ea8482602086016200024c565b91505092915050565b6000602082840312156200030c576200030b6200010f565b5b600082015167ffffffffffffffff8111156200032d576200032c62000114565b5b6200033b84828501620002c0565b91505092915050565b610e7a80620003546000396000f3fe608060405234801561001057600080fd5b50600436106100575760003560e01c806335aa2e441461005c5780634c6b25b11461008c57806354f6127f146100bd5780635cdd7a1f146100ed578063b2a8df0a14610109575b600080fd5b6100766004803603810190610071919061086f565b610125565b60405161008391906108dd565b60405180910390f35b6100a660048036038101906100a1919061092e565b610164565b6040516100b4929190610985565b60405180910390f35b6100d760048036038101906100d2919061092e565b610195565b6040516100e49190610ada565b60405180910390f35b6101076004803603810190610102919061092e565b610274565b005b610123600480360381019061011e9190610afc565b610502565b005b6001818154811061013557600080fd5b906000526020600020016000915054906101000a900473ffffffffffffffffffffffffffffffffffffffff1681565b60006020528060005260406000206000915090508060000160009054906101000a900460ff16908060010154905082565b61019d61076a565b6000808381526020019081526020016000206040518060600160405290816000820160009054906101000a900460ff16151515158152602001600182015481526020016002820180548060200260200160405190810160405280929190818152602001828054801561026457602002820191906000526020600020905b8160009054906101000a900473ffffffffffffffffffffffffffffffffffffffff1673ffffffffffffffffffffffffffffffffffffffff168152602001906001019080831161021a575b5050505050815250509050919050565b6000805b60018054905081101561030e573373ffffffffffffffffffffffffffffffffffffffff16600182815481106102b0576102af610b3c565b5b9060005260206000200160009054906101000a900473ffffffffffffffffffffffffffffffffffffffff1673ffffffffffffffffffffffffffffffffffffffff16146102fb57600191505b808061030690610b9a565b915050610278565b506001151581151514610356576040517f08c379a000000000000000000000000000000000000000000000000000000000815260040161034d90610c3f565b60405180910390fd5b60008060008481526020019081526020016000209050600115158160000160009054906101000a900460ff161515146103c4576040517f08c379a00000000000000000000000000000000000000000000000000000000081526004016103bb90610cd1565b60405180910390fd5b60005b8160020180549050811015610497573373ffffffffffffffffffffffffffffffffffffffff1682600201828154811061040357610402610b3c565b5b9060005260206000200160009054906101000a900473ffffffffffffffffffffffffffffffffffffffff1673ffffffffffffffffffffffffffffffffffffffff1603610484576040517f08c379a000000000000000000000000000000000000000000000000000000000815260040161047b90610d63565b60405180910390fd5b808061048f90610b9a565b9150506103c7565b5080600201339080600181540180825580915050600190039060005260206000200160009091909190916101000a81548173ffffffffffffffffffffffffffffffffffffffff021916908373ffffffffffffffffffffffffffffffffffffffff160217905550505050565b6000805b60018054905081101561059c573373ffffffffffffffffffffffffffffffffffffffff166001828154811061053e5761053d610b3c565b5b9060005260206000200160009054906101000a900473ffffffffffffffffffffffffffffffffffffffff1673ffffffffffffffffffffffffffffffffffffffff161461058957600191505b808061059490610b9a565b915050610506565b5060011515811515146105e4576040517f08c379a00000000000000000000000000000000000000000000000000000000081526004016105db90610c3f565b60405180910390fd5b6000600167ffffffffffffffff81111561060157610600610d83565b5b60405190808252806020026020018201604052801561062f5781602001602082028036833780820191505090505b509050338160008151811061064757610646610b3c565b5b602002602001019073ffffffffffffffffffffffffffffffffffffffff16908173ffffffffffffffffffffffffffffffffffffffff16815250506000151560008086815260200190815260200160002060000160009054906101000a900460ff161515146106ea576040517f08c379a00000000000000000000000000000000000000000000000000000000081526004016106e190610e24565b60405180910390fd5b60405180606001604052806001151581526020018481526020018281525060008086815260200190815260200160002060008201518160000160006101000a81548160ff02191690831515021790555060208201518160010155604082015181600201908051906020019061076092919061078d565b5090505050505050565b604051806060016040528060001515815260200160008152602001606081525090565b828054828255906000526020600020908101928215610806579160200282015b828111156108055782518260006101000a81548173ffffffffffffffffffffffffffffffffffffffff021916908373ffffffffffffffffffffffffffffffffffffffff160217905550916020019190600101906107ad565b5b5090506108139190610817565b5090565b5b80821115610830576000816000905550600101610818565b5090565b600080fd5b6000819050919050565b61084c81610839565b811461085757600080fd5b50565b60008135905061086981610843565b92915050565b60006020828403121561088557610884610834565b5b60006108938482850161085a565b91505092915050565b600073ffffffffffffffffffffffffffffffffffffffff82169050919050565b60006108c78261089c565b9050919050565b6108d7816108bc565b82525050565b60006020820190506108f260008301846108ce565b92915050565b6000819050919050565b61090b816108f8565b811461091657600080fd5b50565b60008135905061092881610902565b92915050565b60006020828403121561094457610943610834565b5b600061095284828501610919565b91505092915050565b60008115159050919050565b6109708161095b565b82525050565b61097f81610839565b82525050565b600060408201905061099a6000830185610967565b6109a76020830184610976565b9392505050565b6109b78161095b565b82525050565b6109c681610839565b82525050565b600081519050919050565b600082825260208201905092915050565b6000819050602082019050919050565b610a01816108bc565b82525050565b6000610a1383836109f8565b60208301905092915050565b6000602082019050919050565b6000610a37826109cc565b610a4181856109d7565b9350610a4c836109e8565b8060005b83811015610a7d578151610a648882610a07565b9750610a6f83610a1f565b925050600181019050610a50565b5085935050505092915050565b6000606083016000830151610aa260008601826109ae565b506020830151610ab560208601826109bd565b5060408301518482036040860152610acd8282610a2c565b9150508091505092915050565b60006020820190508181036000830152610af48184610a8a565b905092915050565b60008060408385031215610b1357610b12610834565b5b6000610b2185828601610919565b9250506020610b328582860161085a565b9150509250929050565b7f4e487b7100000000000000000000000000000000000000000000000000000000600052603260045260246000fd5b7f4e487b7100000000000000000000000000000000000000000000000000000000600052601160045260246000fd5b6000610ba582610839565b91507fffffffffffffffffffffffffffffffffffffffffffffffffffffffffffffffff8203610bd757610bd6610b6b565b5b600182019050919050565b600082825260208201905092915050565b7f6f6e6c792076616c696461746f72730000000000000000000000000000000000600082015250565b6000610c29600f83610be2565b9150610c3482610bf3565b602082019050919050565b60006020820190508181036000830152610c5881610c1c565b9050919050565b7f63616e6e6f7420617070726f766520206e6f6e2d6578697374696e672064617460008201527f6100000000000000000000000000000000000000000000000000000000000000602082015250565b6000610cbb602183610be2565b9150610cc682610c5f565b604082019050919050565b60006020820190508181036000830152610cea81610cae565b9050919050565b7f63616e6e6f7420617070726f76652077686f20616c726561647920617070726f60008201527f7665640000000000000000000000000000000000000000000000000000000000602082015250565b6000610d4d602383610be2565b9150610d5882610cf1565b604082019050919050565b60006020820190508181036000830152610d7c81610d40565b9050919050565b7f4e487b7100000000000000000000000000000000000000000000000000000000600052604160045260246000fd5b7f7468697320646174612077617320616c726561647920696d706f72746564206260008201527f65666f7265000000000000000000000000000000000000000000000000000000602082015250565b6000610e0e602583610be2565b9150610e1982610db2565b604082019050919050565b60006020820190508181036000830152610e3d81610e01565b905091905056fea26469706673582212201d3a97c4ba6b72334f59d76c525816f3b2ecd3f422bbb6cc24ccfcb6992025e464736f6c634300080d0033",
  "immutableReferences": {},
  "source": "// SPDX-License-Identifier: MIT\r\n// Tells the Solidity compiler to compile only from v0.8.13 to v0.9.0\r\npragma solidity ^0.8.13;\r\n\r\ncontract Oracle {\r\n    struct Result {\r\n        bool exist;\r\n        uint payload;\r\n        address[] approvedBy;\r\n    }\r\n    mapping(bytes32 => Result) public results;\r\n    address[] public validators;\r\n\r\n    constructor(address[] memory _validators) {\r\n        validators = _validators;\r\n    }\r\n\r\n    function feedData(bytes32 dataKey, uint payload) external onlyValidators {\r\n        address[] memory _approvedBy = new address[](1);\r\n        _approvedBy[0] = msg.sender;\r\n        require(\r\n            results[dataKey].exist == false,\r\n            \"this data was already imported before\"\r\n        );\r\n        results[dataKey] = Result(true, payload, _approvedBy);\r\n    }\r\n\r\n    function approvedData(bytes32 _dataKey) external onlyValidators {\r\n        Result storage result = results[_dataKey];\r\n        require(result.exist == true, \"cannot approve  non-existing data\");\r\n\r\n        for (uint i = 0; i < result.approvedBy.length; i++) {\r\n            require(\r\n                result.approvedBy[i] != msg.sender,\r\n                \"cannot approve who already approved\"\r\n            );\r\n        }\r\n        result.approvedBy.push(msg.sender);\r\n    }\r\n\r\n    function getData(bytes32 _dataKey) external view returns (Result memory) {\r\n        return results[_dataKey];\r\n    }\r\n\r\n    modifier onlyValidators() {\r\n        bool isValidator = false;\r\n        for (uint i = 0; i < validators.length; i++) {\r\n            if (validators[i] != msg.sender) {\r\n                isValidator = true;\r\n            }\r\n        }\r\n        require(isValidator == true, \"only validators\");\r\n        _;\r\n    }\r\n}\r\n",
  "sourcePath": "E:\\Coding\\Web3\\Web3 master\\Arbitrage\\contracts\\Oracle.sol",
  "compiler": {
    "name": "solc",
    "version": "0.8.13+commit.abaa5c0e.Emscripten.clang"
  },
  "schemaVersion": "3.4.16",
  "updatedAt": "2025-01-26T13:00:29.279Z",
  "devdoc": {
    "kind": "dev",
    "methods": {},
    "version": 1
  },
  "userdoc": {
    "kind": "user",
    "methods": {},
    "version": 1
  }
}